:020000040002F8
:10600000A8550020C1630200C9630200CB630200EF
:10601000CD630200CF630200D163020000000000E4
:10602000000000000000000000000000D363020038
:10603000D563020000000000D7630200D9630200AC
:106040001D660200DB63020061690200DB6302007F
:10605000DB630200DB63020079650200DB630200A0
:10606000DB630200DB630200DB630200DB63020030
:10607000DB630200DB630200DB630200DB63020020
:10608000DB63020075660200DB630200DB63020073
:10609000DB630200DB63020085660200DB63020053
:1060A000DB630200DB630200DB630200DB630200F0
:1060B000DB630200DB630200000000000000000060
:1060C000DB630200DB630200DB630200DB630200D0
:1060D000DB630200DB630200DB6302000000000000
:1060E00000000000000000000000000000000000B0
:1060F00000000000000000000000000000000000A0
:10610000000000000000000000000000000000008F
:10611000000000000000000000000000000000007F
:10612000000000000000000000000000000000006F
:10613000000000000000000000000000000000005F
:10614000000000000000000000000000000000004F
:10615000000000000000000000000000000000003F
:10616000000000000000000000000000000000002F
:10617000000000000000000000000000000000001F
:10618000000000000000000000000000000000000F
:1061900000000000000000000000000000000000FF
:1061A00000000000000000000000000000000000EF
:1061B00000000000000000000000000000000000DF
:1061C00000000000000000000000000000000000CF
:1061D00000000000000000000000000000000000BF
:1061E00000000000000000000000000000000000AF
:1061F000000000000000000000000000000000009F
:10620000DFF80CD000F07AF900480047CDA5020075
:10621000A855002030B450E8012F93B2C48923441C
:106220008489A34228BF1B1B0489A34202BFBFF37A
:106230002F8F002007E0C3EA020340E80134002C5E
:10624000E9D14FF001000A6030BC704750E8012FDF
:10625000C2EA024240E801210029F7D1704730B478
:1062600050E8022F1FFAA2F3C488A34202BFBFF373
:106270002F8F00200DE0C48923448489A34228BFC6
:106280001B1BC2EA034340E80234002CE8D14FF064
:1062900001000A6030BC704750E8022FC2EA224277
:1062A00040E802210029F7D17047034653E8022F46
:1062B000D988B2EB324F4FF0000017BF92B241EADB
:1062C000014142EA014104E05A68B2EB324F08BF93
:1062D000012043E80212002AE8D1704730B4044696
:1062E00054E8000F0D4644E80053002BF8D1156028
:1062F00030BC704730B4044654E8000F40EA010552
:1063000044E80053002BF7D1156030BC704730B41F
:10631000044654E8000F00EA010544E80053002B4E
:10632000F7D1156030BC704730B4044654E8000F14
:1063300080EA010544E80053002BF7D1156030BC1A
:10634000704730B4044654E8000F00EB010544E800
:106350000053002BF7D1156030BC704730B40446B1
:1063600054E8000FA0EB010544E80053002BF7D1DF
:10637000156030BC704770B404464FF0000054E81C
:10638000006F0D68AE4207BF44E80023012044E8D7
:1063900000630E60002B1CBF0020F0E770BC70474C
:1063A00030B4044654E8000F88422CBF451A054615
:1063B00044E80053002BF5D1156030BC7047000055
:1063C0000648804706480047FEE7FEE7FEE7FEE78F
:1063D000FEE7FEE7FEE7FEE7FEE7FEE7896602006E
:1063E000016202002DE9F05F0546002092469B46BF
:1063F00088460646814640241BE0284641464746DB
:10640000224600F06BF853465A46C01A914110D309
:1064100011461846224600F016F82D1A67EB0108BF
:106420004F4622460120002100F00DF817EB00092D
:106430004E41201EA4F10104DFDC484631462A46C5
:106440004346BDE8F09F202A04DB203A00FA02F11F
:10645000002070479140C2F1200320FA03F3194352
:106460009040704700487047900E030040EA0103D7
:106470009B0703D009E008C9121F08C0042AFAD2FA
:1064800003E011F8013B00F8013B521EF9D27047BE
:10649000D2B201E000F8012B491EFBD27047002266
:1064A000F6E710B513460A4604461946FFF7F0FF13
:1064B000204610BD421C10F8011B0029FBD1801A98
:1064C000704730B504460020034600E05B1C934251
:1064D00003D2E05CCD5C401BF8D030BD202A04DB49
:1064E000203A21FA02F00021704721FA02F3D0404D
:1064F000C2F120029140084319467047064C074DEF
:1065000006E0E06840F0010394E807009847103483
:10651000AC42F6D3FFF778FE3C2403005C24030072
:1065200070B58C1810F8015B15F0070301D110F855
:10653000013B2A1106D110F8012B03E010F8016B82
:1065400001F8016B5B1EF9D12B0705D40023521E05
:106550000DD401F8013BFAE710F8013BCB1A921C6D
:1065600003E013F8015B01F8015B521EF9D5A1426B
:10657000D8D3002070BD00002DE9F8430025DFF8D6
:1065800094804FF4807601242F460095304605F024
:1065900021F938B1D8F80403204203D0304605F081
:1065A0000FF92543361D64007F1CB6B2082FEDD3CA
:1065B0004FF4BE74204605F00DF948B1204605F0B1
:1065C000FFF845F000456A460121002005F0C8F8B3
:1065D00015F0FF0F16D0012600242E420ED008EB36
:1065E0008401D1F81005D1F81015C0F304200A4A2F
:1065F000C1F3014152F8242002B190477600641C97
:10660000082CEAD3002D02DA684608F03FF8BDE80E
:10661000F883000000600040142D002070B54FF496
:106620008076304604F044FC114CB50560B130462C
:1066300004F045FC0120C5F80803607920B9012069
:1066400060712168002088474FF48276304604F05C
:106650002FFC00280AD0304604F031FC0220C5F897
:1066600008032168BDE870400120084770BD0000A4
:10667000A423002002490248091F0968006808474E
:106680001824002005F030BEF0B5A449A4484FF00E
:1066900080540B68D4F830210078D4F83411551C9C
:1066A000C0F3031006D0944601270026BCF1060F64
:1066B00003D00AE003F0FF0CF6E7B4F82453DFF848
:1066C00064C2C5F30425CCF80050DDB2062D06D116
:1066D000032804D1DFF854C2934DCCF87450551CF4
:1066E00004D09446BCF1060F03D00AE003F0FF0C7F
:1066F000F8E7D4F84452DFF838C2C5F34235CCF895
:106700000050DDB2062D08D1032806D1894DD5F8F9
:1067100000C02CF0807CC5F800C0551C04D0944605
:10672000BCF1060F03D00BE003F0FF0CF8E74FF0CD
:106730008045C5F80C61C5F810617D4D2D1F2E6098
:10674000DDB2062D08D1032806D1DFF8E4C1032508
:106750000CF1640CCCF80050DDB2062D10D10328EA
:106760000ED1DFF8D4C10525CCF80050724D783534
:106770002F60714D08352E600CF104063F25356001
:10678000551C04D016460D46062E03D05BE0DEB243
:106790000546F9E7ED1E012D55D9684D2D68684E67
:1067A0003560664D2D1D2D68361D3560634D0835ED
:1067B0002D68361D3560614D0C352D68361D3560F0
:1067C0005E4D10352D68361D35605C4D14352D68D5
:1067D000361D3560594D18352D68594E20363560B7
:1067E000564D1C352D68361D3560544D20352D68AD
:1067F000361D3560514D24352D68361D35604F4DA1
:1068000028352D68361D35604C4D2C352D68361DCC
:1068100035604A4D30352D68494E40363560474D1C
:1068200034352D68361D3560444D38352D68361D9C
:106830003560424D3C352D68361D35603F4D403545
:106840002D68361D3560551C03D01646062E02D025
:1068500007E0DEB2FAE7D4F858523A4E05F04F0599
:106860003560551C03D01346062B02D008E0DBB27E
:10687000FAE735480368DB0702D06FF001030360D5
:10688000062A07D1C91E022904D93048016841F4FB
:106890008061016027487438016841F4700101602B
:1068A000BFF34F8FBFF36F8FD4E94C104FF010221E
:1068B000062907D1C01E032804D9D2F808021C49B2
:1068C0001C310860D2F80002002803DBD2F8040271
:1068D00000281FDA012006F0BBF91521C2F80012CA
:1068E0001B480368002BFCD0C2F804120168002981
:1068F000FCD0002006F0ACF9BFF34F8F0D48F03804
:106900000168144A01F4E06111430160BFF34F8F45
:1069100000BFFDE7114910480860F0BDE00F00F02E
:10692000E80F00F0403501400DF0ADBA00C007405F
:106930003C050040FCED00E010560040040400104F
:1069400020C50040E40E0040000400403C17004019
:1069500000E401400400FA050090D003D824002090
:106960000148006800470000AC23002002E008C88E
:10697000121F08C1002AFAD170477047002001E0B9
:1069800001C1121F002AFBD17047000001212028FD
:1069900003DA81400548014003E0402802DA20384C
:1069A000814009B10120704700207047FC06FFBDFF
:1069B0002DE9F843804643F2020659B9694607F0CB
:1069C00035F8B04202D008B100F0C6F99DF80000D9
:1069D000800744D40021404607F032F805003ED03D
:1069E000112D3CD01F482049401AC708022000EB57
:1069F00007440D2D0AD00B2D1DD0B5421FD11B49C8
:106A000020464246BDE8F84305F0EAB82046424633
:106A1000174905F0E5F81321404676DF00281ED01F
:106A200005F014FD024601B020464346BDE8F043A0
:106A300010A105F0DCB8204642461C49E2E7284692
:106A400005F004FD0246012000EB0740434618A173
:106A500005F0CDF82846BDE8F84300F07DB9BDE863
:106A6000F8830000A42403006C2403001416030020
:106A7000A015030073645F626C655F6761705F649B
:106A80006973636F6E6E656374282920726574750F
:106A9000726E6564202573206F6E20636F6E6E5F6B
:106AA00068616E646C652025642E0000601603002A
:106AB000417373657274696E672E20706D5F636FCA
:106AC0006E6E5F73656375726528292072657475D3
:106AD000726E6564202573206F6E20636F6E6E5F2B
:106AE00068616E646C652025642E000010B560B18D
:106AF00059B102780B785208B2EB530F05D1062238
:106B0000401C491CFFF7DDFC08B1002010BD01202E
:106B100010BD800701D00020704701207047C36876
:106B20008B4206D811440069491E814201D80120D8
:106B300070470020704790F82400012801D01F20E2
:106B40007047EE20704710B501220221002001F0AD
:106B500035FA08B1072810D107220221012001F0DF
:106B60002DFA08B1072808D100210A22084601F0B1
:106B700025FA08B1072800D1002010BD10B560B17A
:106B80000B480C49401AC008032101EB00400AA140
:106B900005F022F807F00AFD03E003210A4800F09F
:106BA000C4FC002803D0BDE8104000F0D5B810BDEB
:106BB000142503006C240300457261736520626F25
:106BC0006E647321000000001025002070B58CB0A9
:106BD00015460E4600236C46C3F10F01415CE1549B
:106BE0005B1C102BF8D30D2104F11000FFF757FCAC
:106BF0000020C0F10F02315C2244401C11740328B4
:106C0000F7D3684646DF0020C0F10F01214491F818
:106C100020102954401C0328F6D30CB070BD02206C
:106C200001F0D6B80149C97800F042BE78230020AF
:106C300070B50024064D06E06868012110F83400A4
:106C400005F078FC641C28788442F5D3002070BDE0
:106C5000B8230020F8B516460C4605460A2A01D28C
:106C60000720F8BD05F060FD18B905F023FD0028E8
:106C7000F7D1134F102113487D603C70BE60FFF7C1
:106C80000EFC0020C7E904000F4E0DE005EBC40028
:106C90003168009181788DF8011000780B4A6946BF
:106CA00005F098FC0028DCD1641EE4B2EED2BDE809
:106CB000F84005480021064A001D00F05FB80000BA
:106CC000B8230020C02D0020F00A0300A99802007C
:106CD000D987020072B605F029F800BF04F060FE03
:106CE0000028FBD111481249401AC408012000EBCA
:106CF000044010A104F070FF11480068C00700D0E4
:106D000000BE022000EB04400EA104F065FFBFF3BB
:106D10004F8F0B48E43801680E4A01F4E0611143DB
:106D20000160BFF34F8F00BFFDE700001425030093
:106D30006C240300466174616C206572726F72008E
:106D4000F0ED00E053797374656D207265736574BE
:106D5000000000000400FA050EB500210091CDE905
:106D600001106A4644F20100FFF7B4FF0EBD0000B7
:106D7000014801F098BD0000F823002010B55AB179
:106D800000684FF0FF3401294261C0E9024400D09D
:106D900000210161002010BD072010BD38B5114849
:106DA00008235822416800910F49006803F02BFE28
:106DB000002815D10D4A69460D4801F079FD0400FF
:106DC0000ED101210A4801F0EEFD0123094A1946BE
:106DD000074801F040FD06490120083908702046A7
:106DE00038BD0000F80A0300E02D002069ED020024
:106DF000F8230020FFFF7F00F8B504460026174661
:106E00000D468DF80060684600F042F8D4E90201B2
:106E1000C04370EA010005D09DF8000000F05CF866
:106E20000020F8BD02F026FD40197141C4E90201BD
:106E30009DF8000000F050F8A761206900B12561BD
:106E40002146BDE8F840002008F0D2BF38B504461E
:106E500000208DF80000684600F01AF8D4E902011D
:106E6000C04370EA01000DD04FF0FF30C4E90200CA
:106E70009DF8000000F030F82146BDE838400120C0
:106E800008F0B6BF9DF8000000F026F8002038BDDD
:106E900030B5EFF3108172B60D4A9468012324B126
:106EA0000370002900D162B630BD93604FF0E0233B
:106EB000D3F88051074C25401560C3F88041D3F8C2
:106EC000844154605A17C3F8842100220270E8E715
:106ED000382E0020FC06FFBD0B498A68002A11D01D
:106EE00000280FD1EFF3108072B60B684FF0E0224C
:106EF000C2F800314B68C2F8043100228A600028D1
:106F000000D162B670470000382E00202DE9F04114
:106F1000064608680C46411C4FF0A0474FF001059B
:106F200006D005FA00F1C7F80815206804F0F2FB56
:106F30006068411C02D0002104F0DAFB3168A069CE
:106F4000C1F82405607D227D31681043C1F86C05CD
:106F5000D4E900123068C0F81425C0F80C15207D63
:106F6000012815D1A068411C02D0002104F0C0FB0B
:106F7000E068411C05D08540C7F80855E06804F07A
:106F8000C9FBD4E902123068C0F80825C0F8101512
:106F9000BDE8F0812DE9F041064608680C46411C29
:106FA0004FF0A0474FF0010506D005FA00F1C7F8F1
:106FB0000815206804F0B8FB6068411C02D000216D
:106FC00004F09FFB3168A069C1F82405607D217D34
:106FD00032680843C2F86C05D4E900123068C0F882
:106FE0000C15C0F81425207D012815D1A068411C7E
:106FF00002D0002104F085FBE068411C05D08540EB
:10700000C7F80855E06804F08FFBD4E90212306835
:10701000C0F80825C0F81015BDE8F08103F09CB950
:107020002DE9F047814605884A484FF000088AB0AC
:1070300001784246284600F053FC99F805004007C5
:1070400001D4002176E005F58077B8B205AB0122C6
:10705000072106F041F904003F48404A4FF0010182
:10706000A0EB02004FEAD00001EB00460AD0204618
:1070700005F0ECF9024630462B46394904F0B7FDDD
:10708000214629E0284602F0FDFE4FF6FF71044636
:1070900088422BD18A46069802F05EFE044650458F
:1070A00010D00146284602F0CDFE2846FFF7BAFD73
:1070B000E0B9284608F01EF92846FFF7B3FD00287E
:1070C000BFD013E006F0DEFA0446504508D1304642
:1070D00024A104F081FD0421284608F039F9B0E725
:1070E0000146284602F0AEFE4FF00108B8B2224633
:1070F000072106F069F907001BD0862F1ED005F086
:10710000A5F9024630462B462349009404F077FD4A
:107110003946284608F01CF90021484605F0D4FFFE
:10712000B8F1000F02D0204602F096FE0AB0BDE88A
:10713000F0870121484605F0C7FFF7E714221749F9
:107140006846FFF793F9ADF80250684601F04CFE2F
:10715000EFE7000078230020AC2403006C24030038
:107160005C190300436F756C64206E6F7420616C52
:107170006C6F63617465206E657720706565725F02
:10718000696420666F7220696E636F6D696E672037
:10719000626F6E642E000000781A0300900A0300EC
:1071A0002DE9FC47002517880646158090F82D002C
:1071B0001446894630B13A462146484600F0B6FBAF
:1071C000051E09D1B0784FF00C0A18B32088C846C4
:1071D000001DB84202D95046BDE8FC87684679DFF9
:1071E0000028F9D12088032108F8001020881921EF
:1071F000401C80B2208008F800102088401C80B21B
:10720000208000EB0801BDF8000008F0C0FF2188D5
:1072100008442080F0780222C8B1218896F9033012
:1072200001F1030C4846BC45D5D8425421884FF0A3
:10723000010C491C89B2218000F801C02188491C39
:1072400089B2218009F801302088401C20807068B4
:10725000B8B1218890F9003001F1030C4846BC45D3
:10726000B9D8425421880A22491C89B2218042544B
:107270002188491C89B2218009F801302088401CEE
:107280002080308950B1CDE900474B4606220221CB
:1072900006F1080009F06AF8051E9DD1308A50B148
:1072A000CDE900474B460722032106F1100009F003
:1072B0005DF8051E90D1308B50B1CDE900474B46AB
:1072C0001522142106F1180009F050F8051E83D18B
:1072D000306A30B13B462246494601F030F9051E7E
:1072E000DBD1706A30B13B462246494603F066FA6C
:1072F000051ED2D196F82C0038B13B4622464946AD
:10730000304608F061F9051EC7D1307838B13B46E8
:1073100022464946304603F0DFFA051EBDD1284615
:107320005AE718B504460020ADF8000013466A4637
:10733000204600F006F8002802D0BDF800002044E6
:1073400018BD70B5E0B1DAB1002402E0045D2C4450
:10735000A4B2651C8D4206D21688A642F6D806193C
:1073600076789E42F2D18C420AD2A31C005D9BB279
:1073700000B1401E0004000C02D01C188C4201D940
:10738000002070BD138070BD80F8301070472DE96B
:10739000F0410D00044606D02CB195F87A00002685
:1073A000012803D006E00E20BDE8F08195F8980092
:1073B000012829D0D5F8A000042825D0D5F89C00B4
:1073C000042821D04FF00108A6702C2205F1780185
:1073D000201DFFF74BF884F83060D5F8A4006063F7
:1073E000D5F8A800A0634FF6FF70A4F8240404F5B4
:1073F0008260C4F82004C4F82664A4F82A6484F8DF
:107400002C64207810B104E00720CDE7FF2084F839
:10741000540004F155072046C4F81074FFF78BFBA5
:10742000A4F8140404F2144239462846FFF7B8FEC3
:107430000028B9D104F23120C4F818042046FFF71F
:107440007AFBA4F81C0404F21C4205F13C00D4F8B9
:107450001814FFF7A5FE0028A6D184F85180208BD0
:10746000A4F8480084F83C80266484F85060606981
:1074700000216064454604F13C02781E72DF00285A
:1074800092D1257090E710B50288102A1BD0112ADE
:1074900020D0262A1DD1007A0C46012801D00228CE
:1074A00017D1A0780521401CB0FBF1F201FB1201BD
:1074B000204600F03AF800280BD0A16B002908D034
:1074C000BDE810400847C27B012A02D18088A1F89C
:1074D000240410BD0C46002184F82E148088B4F8D2
:1074E00024148842F5D120790028F2D10121DFE768
:1074F00010B5044690F8540074DF012084F82E047F
:10750000002084F8300484F850000621204601F061
:10751000A6FE002808D1A178204600F006F810B198
:10752000A16B01B18847002010BD2DE9F05F044632
:1075300000780F4698B1A7700025C4F82654A4F827
:107540002A5484F82C54A079012608B1012F09D0BF
:10755000E07980B1012F05D0022F03D00BE0082085
:10756000BDE8F09F616B21B184F82D640820884745
:1075700001E084F82D5404F2274100200A5C0AB18E
:10758000304603E0401C0628F8D300204FF00208E4
:107590004FF0030B012F06D0022F0CD0032F0FD07A
:1075A000042F15D110E0A17929B194F8241011B954
:1075B00008B130460DE0E17911B108B1404608E06C
:1075C000207A08B1584604E0607A08B1042000E04F
:1075D0002846A070616B41B1032801D0042804D172
:1075E000607910B194F82E0498B184F82F5404F106
:1075F0003C0018210746FEF752FF84F83C6004F176
:107600002C0006F071F958B194F82C0084F8510060
:1076100008E084F8305484F82F6407208847E6E7B0
:1076200084F8516094F8240058B104F1280006F061
:107630005BF920B194F8280084F8520001E084F846
:10764000526084F85050A27804F2264104F5826911
:107650004FF0060A052A64D2DFE802F07C030F220D
:10766000420084F83160C4F82054C4E9101584F84D
:107670003C808020A4F8480055E084F8318094F8DC
:107680002420384612B10722027001E080F800B0D1
:10769000228A8281C4F820544160E168B96042E0E6
:1076A0006069B860208BB88194F824003D460028BA
:1076B000204602D084F83CA001E084F83C6008F049
:1076C00021FE50B185F814800421204601F0C7FD49
:1076D00038BB052184F8311021E084F831B01EE078
:1076E000E069B860208CB88194F824003D460028F9
:1076F000204602D084F83CA001E084F83C6008F009
:1077000001FE48B185F814800421204601F0A7FD50
:1077100038B984F831A002E0042084F83100C4F8BC
:107720002094A07878B13A4604F15400D4F820149B
:1077300072DF00287FF414AF94F8301094F85400EE
:1077400073DF0028F6D1616B11B194F831008847DE
:10775000002005E784F83150F5E7000070B504001B
:1077600012D001461C221448FEF780FE1248134D29
:107770000560206850B17ADF002806D120680168D2
:1077800029604068686005E00E2070BD0B487BDF13
:107790000028FAD108484FF6FF711438084A20F83B
:1077A000041B0549343901600021FFF7E7FA00287E
:1077B000EBD0032070BD000084290020D0220020DF
:1077C0009D02030010B5044600F0A6F8002805D07D
:1077D0002146BDE81040024803F094B910BD0000F6
:1077E000B029002070B515460E46044608F096FDF7
:1077F000002809D0054800EB8400C0692A463146BC
:10780000BDE8704001F058BD70BD0000A029002007
:1078100010B5044600F080F8002805D02146BDE8E8
:107820001040024803F06EB910BD0000B8290020D6
:1078300010B5044600F070F8002805D02146BDE8D8
:107840001040024803F05EB910BD0000B4290020CA
:1078500070B50546002400F05FF838B129460448A9
:1078600003F050F908B1022400E00124204670BD65
:10787000AC29002070B50546002400F04DF838B161
:107880002946044803F03EF908B1022400E001242F
:10789000204670BDA829002010B51821034803F028
:1078A0000CF9182800D0C0B210BD0000A02900209B
:1078B00070B505460C46084608F030FD60B1284614
:1078C00000F02AF840B10548294600EB8400BDE8E5
:1078D00070401C3003F016B9002070BDA0290020B4
:1078E00070B5054616460C46084608F017FD0028F8
:1078F0000ED0284600F010F8002809D0054832467E
:1079000000EB84002946BDE870401C3001F0A2BCA9
:1079100070BD0000A0290020142801D3002070476A
:107920000146014803F0EEB8A42900207CB50546C5
:1079300008880C460930904201D90C207CBD68466D
:107940006DDF0028FAD121880820685420881B2187
:10795000401C80B2208029542088401C80B22080A6
:107960002844DDF801100160BDF8051081802088F1
:10797000801D80B220809DF80010490800D00121B0
:1079800029542088401C208000207CBD38B5018807
:107990000446212930D012DC1E481F4A1029A0EBD2
:1079A00002004FEAD0004FF0030202EB00400ED07D
:1079B00011292AD1BDE8384018A104F00DB93B299E
:1079C00024D0562921D18088132176DF0EE017A11B
:1079D00004F002F9072000F013FB08B1FFF7BCF92F
:1079E0001548A1880180154803F0EAF900280CD059
:1079F000BDE83840FFF7B0B900200090A088694684
:107A00008FDF002801D0FFF7A7F938BD8088132148
:107A100076DFEBE7142503006C24030044697363ED
:107A20006F6E6E65637465642E000000436F6E6E4A
:107A300065637465642E0000502200200425002038
:107A400010B51A4C0188606810290ED011292BD16D
:107A5000401E606028D1FFF776F8002824D0216806
:107A6000002921D0BDE810400847D0B900210122EB
:107A7000084600F0A3FA08B107280FD10722022117
:107A8000012000F09BFA08B1072807D10422022147
:107A9000002000F093FA20B1072802D0216801B13C
:107AA00088476068401C606010BD0000C82200204C
:107AB0002DE9F04701883B4E40F2F3194FF6FF7570
:107AC00010291BD011293ED0122954D0502946D15B
:107AD000C188F289841D914241D1618902293ED138
:107AE0008688304602F07AFA050038D004F10C009E
:107AF00000F02AF9A8B3294630464EE0C17B8788BA
:107B0000044601292BD1A846284602F067FA050051
:107B100017D02F8000202872234843464A46016828
:107B2000C5F80A104068C5F80E0004F1100105F10F
:107B30000A0002F017FB6872F08900280FD129466D
:107B40002AE0042013E0808802F048FA040006D0FE
:107B50006068FFF77BF908B107F0DEFB2580BDE820
:107B6000F087FFE76868FFF771F90028F7D0BDE8F4
:107B7000F04707F0D1BB87880646384602F02EFA58
:107B80000400ECD02B464A4606F1080104F10A0035
:107B900002F0E8FA607221463846BDE8F04700F08E
:107BA00015BD000084290020D02200202DE9F04FCF
:107BB000044686880188424897B0834610290CD035
:107BC000112950D0103019296AD01A2974D1217A7C
:107BD0000C09042C4DD301224CE0394D083DA86816
:107BE000C0430B9069680BA802F0B0FF0B990CA87A
:107BF00000F086FC2C220CA96846FEF737FC002713
:107C0000E946A84610E000BF09EB47005FF0000519
:107C1000B0F804A008EB85005146001D02F032FFC9
:107C20006D1C1E2DF6D37F1C0098B842ECD8142E84
:107C300005D317B00420BDE8F04FFFF78DB83146EB
:107C4000584602F06AFF314608F1040002F065FF71
:107C5000E07B022830D117B03146BDE8F04F18481C
:107C6000001D02F05ABF17B03146BDE8F04F02F0D8
:107C700009BF0022314601F0EDFA032C01D30122A5
:107C800000E000220E4831460C3001F0E3FA022CED
:107C900001D3012200E0002209483146083006E005
:107CA000217A002908D1617AC1F3C002314617B0A8
:107CB000BDE8F04F01F0CEBA17B0BDE8F08F00007C
:107CC000A829002070B51F4E044686B070780028A1
:107CD00036D02088A588102811D031782846FFF7A3
:107CE000E7FD00282CD1204601F0A8FF204607F030
:107CF000C3FC06B02046BDE8704001F0F7BB002091
:107D00008DF80000142101A8FEF7C9FB01208DF8B1
:107D100004004FF6FF70ADF8080004F1080003906E
:107D2000ADF80650CDF810D001A801F047F89DF845
:107D3000002031782846FFF7D3FD9DF80000D0E7FA
:107D400006B070BD08230020007800F001007047E5
:107D50000149085C70470000280903000649095CD6
:107D60004FF0A040D0F81005C84010F0010000D03E
:107D7000012080F001007047280903002DE9FC4133
:107D80000646C0074FF000050ED0104F0024012218
:107D9000385D009500231146019503F04FFC641CEB
:107DA000042CF4D300F046F8B0070DD5074E00249C
:107DB000361D0022305D032300951146019503F026
:107DC0003DFC641C042CF4D3BDE8FC8124090300B1
:107DD00007490B5C4FF0A041D1F8042501209840E1
:107DE00020EA0203C1F808351040C1F80C057047BD
:107DF000240903000249085C012103F0D6BC0000FD
:107E0000240903000249085C002103F0CEBC0000F5
:107E1000240903000649095C4FF0A040D0F804058E
:107E2000C84010F0010000D0012080F00100704730
:107E30002409030010B500242046FFF7DBFF641C73
:107E4000042CF9D310BD10B500242046FFF7DAFF4B
:107E5000641C042CF9D310BD10B50246064B4FF03C
:107E6000FF3000215C5C944201D1084610BD491CE2
:107E70000429F7D310BD00002809030070B50C4E8B
:107E80000C004FF0000530600BD0012000F06AF8C4
:107E900008B1022004E0002000F064F800B10B20DB
:107EA0002070706810B9FEF74EFE0546284670BD7A
:107EB000C822002010B5002000F0DCF908B1062827
:107EC00006D1012000F0D6F908B1062800D1002023
:107ED00010BD00002DE9F0470D468146FFF7BCFFBD
:107EE0000446042836D2DFF874801B481C4EA8F1E3
:107EF0000C0725B3012D0ED0022D2BD104EB44002D
:107F000030444578002D25D0B968002922D0284674
:107F1000BDE8F047084704EB4401755C0E447178F6
:107F200049B10E4A4FF48041093A8068FEF764FF78
:107F300008B987F80390B17808F80410E2E7806880
:107F4000FEF784FF04EB4401314418F804008D78F7
:107F5000A842D7D0BDE8F0872C0903006422002096
:107F600044290020042801D2FFF7F8BE0020704702
:107F70000146104810B50088042907D007290ED003
:107F80000A2915D1BDE8104007F062BB132176DF46
:107F90000CE000280CD0BDE81040FEF7DDBEA0F5D7
:107FA0007F41FF3904D10448FFF7A2FA0828F0D135
:107FB00010BD0000502200201025002070B50023C5
:107FC000042810D20D4D00EB4004012A02D10129F2
:107FD0000CD00022094E00EB4000304461B1012971
:107FE00006D0022906D00723184670BD0E30C2B253
:107FF0002A55F9E74270F7E78270F5E74429002037
:10800000044A014600201279D20702D0084600F047
:108010004DB870475822002070B506461E4800240F
:10802000C0E90161B00720D500250122114628468C
:10803000FFF7C4FF6D1C0446042D02D2002CF4D0BF
:1080400013E094B940F2333204211448FEF702FEE3
:1080500004000AD1FEF7ECFD040006D10F48104AD7
:108060000021001FFEF78AFE0446F00712D001200F
:10807000FFF784FE74B909480A4A00210C38FEF75C
:108080007DFE040006D10548074A01210838FEF7A5
:1080900075FE0446204670BD5822002038090300B2
:1080A00081830200F9A102001F6C02002DE9F05F3C
:1080B0006E4C054600266078B34618B184F801B0CE
:1080C00002F082F86A4F4FF47A694FF4C87A4FF0A1
:1080D0000108182D69D2DFE805F00C131338475456
:1080E000696E727B727BC58484848484B3B6B9BCA8
:1080F000C5C502F069F83868FEF7A8FE06465CE0E0
:108100000020FFF787FE00284FF0000008D0FFF79F
:1081100071FE022D02D14FF4E16008E0484606E00E
:10812000FFF770FE022D01D1C82000E05046410C3F
:10813000C0034FF47A72801841F10001257052009B
:108140000023FEF74FF901462AE00020FFF762FE08
:1081500000284FF0000004D0FFF74CFE4FF44870A9
:10816000E5E7FFF74FFEDFE70020FFF753FE0028AB
:108170004FF0000002D0FFF73DFECFE7FFF742FED1
:10818000D4E70020FFF746FE00284FF0000002D0A1
:10819000FFF730FE01E0FFF735FE257040F6CD41D8
:1081A00000223868FEF728FE064646E00020FFF76A
:1081B0000FFE257008E0002051E025703DE084F8B6
:1081C00001800120FFF704FE002240F26661E8E72B
:1081D00084F801800120FFF7FBFD00224FF40051DD
:1081E000DFE77868FEF732FE0646D5F1110000D0D1
:1081F0002EB10220FFF7FEFD84F802B01DE0012839
:1082000016D980B2C8214843C117C90341EA504179
:10821000C0034FF47A72801841F10001520000232C
:10822000FEF7E0F8014600227868FEF7E5FD064615
:108230000220FFF7E7FD84F802803046BDE8F09F9A
:1082400001F0C2FFB9E701F0BFFFB4E701F0BCFFE6
:1082500004E001F0B9FF0020FFF7D4FD0120FFF793
:10826000D1FDAAE7FFF7EFFDA7E7000058220020A5
:108270002C090300012108F0E0B800002DE9F84FB7
:108280000546861C00208DF8000091460F464FF0F1
:10829000010A6846FEF7FCFD1B4C04F21C486068AE
:1082A0003860D4E90101194F401A3968081A0EE004
:1082B0000121404602F044FC02F036F901464046F6
:1082C00002F03EFCD4E90101401A3968081A401C4A
:1082D0008642EDD8B9F1000F03D0052065F389106F
:1082E00002E0062065F39F5061683A68114004EB94
:1082F0008101C8606068304460609DF80000FEF74E
:10830000EBFD5046BDE8F88F883100208024002026
:1083100070B50D4604460A2902D10D21FFF7F8FF7A
:10832000A0682268411CA1601554D4E90101814272
:1083300004D32046BDE8704002F045BE70BD000089
:10834000044881684068814201D1012070470020C3
:108350007047000088310020034630B507480021EF
:108360000478426806E000BF02EBC10005789D4238
:1083700003D0491CA142F7DB002030BDB823002008
:1083800000780221FFF7A6BD1CB5044601F07AFD76
:1083900000236A46092105F0E1F8052805D10348C4
:1083A000012241792046FFF79BFA1CBDD82200200C
:1083B0001CB504460020009042F6A620ADF800004F
:1083C00001208DF80200084801AA69460068019062
:1083D0002046A0DF002805D10448012281792046EB
:1083E000FFF77EFA1CBD000058090300D8220020C8
:1083F00005494FF0FF32082841F8202002D30844F5
:1084000080F8482070470000142D0020F0B54FF090
:10841000FF3512B10023082601E008230C260C4C7E
:1084200005E000BF54F823707F1C04D05B1CB342EE
:10843000F8D32846F0BD26185DB286F8305044F8CF
:108440002310002AF5D1E11881F84800F1E7000077
:10845000142D00200249084490F9300070470000B4
:10846000142D002070B504464FF6FF750A462846C5
:10847000AC4209D14FF480742146104602F01DFB36
:1084800080B2A0420BD070BDFF2CFCD82146104614
:1084900002F003FB90F0010F01D0204670BD28468A
:1084A00070BD000070B5084C050009D0103421687B
:1084B000002907D008682060496828468847F6E701
:1084C0000834F4E770BD0000002D0020054A0121AA
:1084D00020B1012805D19170FFF7E4BF5170002051
:1084E000FAE77047002D002010B5D0E90234D1E939
:1084F0000220D11AA04101D3012010BD002010BDDF
:1085000073B58CB00646002000900D9880B1002411
:108510006D4621460DA802F0F5FA30B1009805EB42
:10852000400084800098401C0090641C142CF0D300
:108530002C2269463046FDF799FF0EB070BD2DE93B
:10854000F04117880646B81D14460D46984202D9D8
:108550000C20BDE8F0813188072206290AD34FF4A8
:10856000486C4FF6FF73614501D9994202D170887A
:10857000062801D21046ECE7604501D99842F9D1AE
:10858000994203D0984201D08142F3D80520E855A2
:1085900020881221401C80B2208029542088401C51
:1085A00080B220804119308807F0F1FD218808440D
:1085B00080B220804119708807F0E9FD21880844C5
:1085C00020800020C5E7FEF7C7BB000038B54A7A17
:1085D0000F4B62B100220A725969002906D00122AC
:1085E0008DF80020ADF802006846884738BD0A7A49
:1085F00062B19B684C68024619462046FEF7FCFBB8
:108600000028F3D0BDE8384006F086BE5B68F1E78D
:1086100084290020F0B585B016460F4604461D4655
:1086200014220B496846FDF721FF0A488DF80870AF
:10863000ADF80240ADF80A608DF80C5001780022C8
:108640002046FFF74DF9684600F0CEFB05B0F0BDBF
:10865000A40A030078230020FEF7AAB970B588B0F9
:108660000646002005900690ADF81410ADF81610DF
:108670000190029001AA05A9304690DF050021D0A3
:1086800003F0E4FE0346114811493246401AC1087E
:10869000012000EB014004460E4903F0A8FABDF8A2
:1086A000042012B9BDF8060028B1BDF806302046F6
:1086B00009A103F09CFABDF808201AB1204616491A
:1086C00003F08EFA08B0284670BD00008424030031
:1086D0006C240300D4110300546865207265717521
:1086E00065737465642054582F5258207061636B11
:1086F0006574206C656E67746820697320746F6F91
:10870000206C6F6E672062792025752F2575206F8C
:1087100063746574732E00002012030070B5044664
:108720000948012102F027FABFF35F8F00250028D6
:1087300008D1204601F06CFE002803D1BFF35F8F03
:108740000148056070BD0000E42200202DE9FF41D2
:108750000C4620B14FF4064004B0BDE8F08120790A
:10876000002748F2096538B141F61D5601281BD093
:10877000022826D0681DEFE7022020710297039798
:10878000E0680190694601A806F004FA50B1029829
:108790008188E18000882081BDF80010029806F0F1
:1087A00077FAD9E72846D7E70A4B6A460021A01D89
:1087B00006F0A8F938B1074918398F61CF61A8428E
:1087C000CAD13046C8E703488188019806F060FAAC
:1087D000F5E700003824002070B500240F4D10E0AC
:1087E000686800EBC406307803F05AFF71780129FD
:1087F00001D0012100E000214140307800F048FA2A
:10880000641C28788442EBDBD5E90401084303D0DB
:10881000BDE8704007F008BB70BD0000B823002021
:1088200010B50021024802F0A6F980F3100010BD37
:10883000A43500204FF480328A400168C1F84823F3
:108840000068C0F8082370474FF4A07202EB810162
:1088500089B200F08DBA2DE9F04105460E464FF47D
:10886000A07000EB860081B228684FF48034B440D9
:10887000984622F07F47C0F808432868C0F848436C
:10888000286803F077FB286800EB8600C0F8407585
:108890002868C0F84443B8F1000F02D02868C0F837
:1088A0000443BDE8F0810068D0F80405704700007B
:1088B00070B54379234C44F823204279231D03EB00
:1088C000C202224C1579204A121BD4082DB108256A
:1088D000022000EB04401EA130E005680A88C5F8BC
:1088E000082590F904208978002A4FEA411104DB19
:1088F00002F1E02282F8001405E002F00F0202F11A
:10890000E02282F8141D90F904100122002909DBED
:1089100001F01F0502FA05F54909890001F1E0217E
:10892000C1F800514179002503EBC1010A71417979
:1089300043F83100032000EB04400EA103F04CF992
:10894000284670BD14240020F42403006C24030086
:1089500052544320696E7374616E636520616C725A
:108960006561647920696E697469616C697A6564AE
:108970002E0000005254433A20696E697469616C9C
:10898000697A65642E00000090F90400002809DB74
:1089900000F01F02012191404009800000F1E02019
:1089A000C0F8001270470A46022100F067B94FF480
:1089B000827100F0DDB90068012101607047006834
:1089C0000121416070472DE9F05F07460C464FF4E6
:1089D000A07000EB84001FFA80FA38684FF48036EC
:1089E000A6409B4622F07F45C0F848633868C0F82F
:1089F00008633868D0F8048500EB8402D2F840950B
:108A0000C2F840855146386803F0B4FAA9EB080073
:108A100020F07F40012806D1102003F083FD51464D
:108A2000386803F0A7FA3868D0F80485C0F84463C2
:108A3000A5EB080121F07F413868012900EB840093
:108A400010D0C0F840553868D0F804156FF07F4C4E
:108A50006A1A521E22F07F42ACEB0B03934217D3EB
:108A600062B118E06D1CC0F84055102003F05AFDAB
:108A70003868D0F8040540450AD10CE000EB8400CA
:108A80006D1CC0F840553868D0F80405884202D003
:108A90000D20BDE8F09F01223146384600F0EEF887
:108AA0000020F6E713460A460021FFF7B3BD000099
:108AB0002DE9F843104D0F4680461E469146694603
:108AC000286801F0B3FF040014D01C21FDF7E7FC77
:108AD00001202071C4F81490380BC4F80080C4E958
:108AE00002606946286801F0C2FF05F077FF0020A8
:108AF000BDE8F8830420FBE7A00B030010B5037862
:108B00000022072B06D2DFE803F005040610202917
:108B100030000A7010BD01230B7003898B8183889C
:108B2000CB81C06888600A7410BD02220A70028975
:108B30008A818288CA81C2688A60807D062802D0C4
:108B40000020087410BD0120FBE703220A70C288D0
:108B50008A810289CA81C068886010BD04230B70B5
:108B6000C0888881CA818A6010BD0520087010BD48
:108B700070B5064D0646002455F8241009B130465C
:108B80008847641C042CF7D370BD0000602E0020C1
:108B900030B50446006887B00D46806800281FD0B5
:108BA00018216846FDF77BFC0195A06805902079A7
:108BB00010B1012810D107E001208DF800002069D4
:108BC0000290E068039005E002208DF80000E06864
:108BD00000030290606904902068816868468847B5
:108BE00007B030BDF0B585B017460C0005463AD049
:108BF000112C38D0082C36D01C481D49401AC60804
:108C00000D2C11D0204603F021FC0246012000EB80
:108C100006402B46174902F0EAFF2A46082168461B
:108C200001F0B8FE02941BE0022000EB06402A4649
:108C3000114902F0D5FF2A460421684601F0AAFE38
:108C400027B13878C00701D0012000E002208DF85C
:108C5000080000208DF80C0041F20110ADF80A0068
:108C6000684600F0CFF805B0F0BD0000B424030062
:108C70006C240300441C0300341B03000368C3F886
:108C80004413002A02D00068C0F8041370470000A3
:108C90002DE9F84F0E463449804601EB5001C007DC
:108CA000097801D00F0901E001F00F074FF000092A
:108CB000424601204946FDF7C6FBDFF8B0A0044656
:108CC0000D46052F4ED2DFE807F003161B282C00B7
:108CD000002E47D00121404606F064FF8DF8009039
:108CE0006846FEF7D5F85046D0E904120C43154308
:108CF000CAE9044532E00EB1022114E0002112E07D
:108D00004EB10321404606F04DFF4046BDE8F84F06
:108D1000012107F01BBB012105E0002E22D1042117
:108D200001E02EB103214046BDE8F84F06F03ABFFE
:108D30000021404606F036FF0021404607F006FBC2
:108D40008DF800906846FEF7A3F85046E243D0E95C
:108D500004341A4024EA0501CAE904219DF8000000
:108D6000FEF7BAF8BDE8F88FC02D0020B823002028
:108D700010B5006842581AB103F0FCF8012010BD8C
:108D8000002010BD10B50446408801F07BF8A0809B
:108D9000024801682046BDE810400847E022002054
:108DA00010B50446808800F0B7FF60800248016873
:108DB0002046BDE810400847F02200202DE9F04190
:108DC00007460024064E074D05E000BF56F8241064
:108DD00038468847641C28798442F7DBBDE8F08177
:108DE000B42C00200823002010B50446408801F070
:108DF00049F8A080024801682046BDE810400847B5
:108E0000640A03000149096808470000E00A0300FA
:108E100070B586B0044614216846FDF740FBA08972
:108E20000125A0F54040ADF8040020782F4E06281B
:108E300033D2DFE800F0320303032C4AA08900F0AC
:108E4000EDF930B9E08943F6FE71A0F54040884263
:108E500023D8A07B8DF80800207803280FD00020AD
:108E60008DF80900A0680390606850B10A208DF861
:108E7000000060680490684604F0C2FA0DE001202A
:108E8000EEE709208DF800008DF81050F3E7A08977
:108E900000F0C4F908B1E08930B17078002801D041
:108EA00004F002FC06B070BD606830B10C208DF893
:108EB0000000606802907570DDE70B208DF80000FF
:108EC000BDF8040004F094FCF5E7606848B1152093
:108ED0008DF80000606802904FF6FF70ADF8040056
:108EE000C9E714208DF80000F6E70000F422002006
:108EF00038B504460F480078B0B1A4F57F40FF387C
:108F00000FD0684605F09AFC88B105210170012157
:108F10000171C480684605F09FFC05F051FD0020FA
:108F200038BD48F2036038BD48F2016038BD48F2F0
:108F3000076038BD402400200D4808B5007888B18E
:108F4000684605F07BFC80B106210170684605F09B
:108F500083FC0848017809B10121017305F030FD57
:108F6000002008BD48F2016008BD48F2076008BD56
:108F700040240020242F0020F0B587B0142168463B
:108F8000FDF78DFA314C207818B16846FFF7F0FDF7
:108F90005AE0201D01F0D1FDA0BB40F6F870016839
:108FA000481C02D14FF0102041694FF080500269F7
:108FB00040694B1C01D100FB02F1254800220161F0
:108FC000A1F54051C160234902F092F9002826D151
:108FD00022481C238C222049006801F014FD03F074
:108FE0009BFF05004FF0000615D0022D13D001277E
:108FF000062D16D005A805F021FCA8B107700C2D90
:109000001DD200E020E0DFE805F01A121A121A194A
:109010001A191A1416142670666048F20A6007B00E
:10902000F0BD27706660B0E748F20760F7E70671A9
:1090300005E0032100E00221017100E0077105A8AD
:1090400005F00AFC05F0BCFC0020E8E74024002005
:10905000DC240020B00B0300702E0020180B03004E
:1090600038B5040014D0694605F094FDB0B1BDF8E0
:10907000000000EB80010B4800EB8100C16851B19A
:10908000A17A41B1C168491EC1600020A07238BDFB
:1090900048F2046038BD48F2056038BD48F2096006
:1090A00038BD0000FC2E00201FB501A9684605F060
:1090B00029FD04B010BD07B513460A4669460020D5
:1090C00005F020FD0EBD07B513460A46002168468F
:1090D00005F018FD0EBD20B119B100680860002030
:1090E000704748F204607047F8B50D46040018D088
:1090F000BDB1694605F04EFDB0B1BDF800000C49A8
:1091000000EB800001EB800001210C30666801F06B
:1091100017FD2E6060680C3068600120A07200208E
:10912000F8BD48F20460F8BD48F20960F8BD0000DF
:10913000FC2E002018B10323002207F0C1BA48F228
:10914000046070470223002207F0BABA094910B53B
:109150000A69042A0AD0084A096942F82100054828
:109160000121103001F0ECFC002010BD48F20B6032
:1091700010BD000020240020602E00202DE9F84FB3
:10918000044624480078D8B1F4B112212046FDF7F6
:1091900086F90320DFF880902080002504F1100874
:1091A00004F10E0A05EB850109EB8106308971890E
:1091B000084487B2706803F039FE032807D009E03D
:1091C00048F20160BDE8F88F48F20460FAE72088B1
:1091D000401E20806088F168084460802089718981
:1091E00008442081608938446081C7F58060A18986
:1091F00080B2814200D2A0815346A21D211D284683
:10920000CDF8008005F062FD6D1CADB2022DC9D312
:109210000020D7E740240020FC2E002043F6FE71FA
:10922000A0F54040884201D80120704700207047D7
:1092300010B504460078182802D1FEF72DFB2070E7
:1092400010BD10B504460078182802D1FEF724FBA3
:10925000207010BD0AB101F060BC01F013BC70B504
:109260000D460446B0F81414D0F810040122FEF79D
:1092700058F800B1057004F13C0204F5826104F174
:10928000540072DF70BD000070B513460022054621
:10929000112900D10122074C33B12179FEF720FBBF
:1092A00000226178284600E06178BDE87040FEF752
:1092B00017BB000080230020F7B517460E0011D021
:1092C0000098002560B100242146684601F01AFC90
:1092D00018B1A0B23946B0476D1C641C142CF3D3EE
:1092E0002846FEBD0020FEBD406805F0C7BA00005C
:1092F00070B510B14FF4064070BD1A4C0025207BAC
:1093000008B1257301E000F0A1F82078082826D2E2
:10931000DFE800F02504080C10251420BDE870409B
:1093200000F022B8BDE8704000F07EB8BDE87040A3
:1093300000F060B8BDE8704000F03CB860880949B2
:1093400000EB8000283901EB80004068BDE87040E8
:1093500003F0C2BD6560BDE8704003F0CBBD48F2CC
:109360000E6070BD242F00201149F0B48A1C00202B
:109370000346A1F128050C18A67A4EB1A37200EBA2
:10938000800405EB8404E66816B9247C012C0AD01D
:10939000401C80B20228EED30B704B804B60F0BCB7
:1093A00041F61D5070471080F0BC00F03DB8000041
:1093B000242F00200C48418801EB8102A0F12801F4
:1093C00001EB8201CA6852B10521017007480221F0
:1093D0008180016800230122054801F0EDBE0422CE
:1093E00002704968F6E70000242F0020482400207E
:1093F000DC24002038B50A49084803240B68426879
:10940000898803EB810153880470DB1C00201B0456
:1094100000909B0B034802F023F838BD242F002056
:1094200048240020DC240020074910B54888091D85
:1094300005F000FC18B1BDE81040FFF7DBBFBDE848
:109440001040FFF7B7BF0000242F002070B5194C63
:109450000121207808281AD2DFE800F00419191C2D
:10946000252929182089134A401C2081002060806A
:109470002073283A00EB800312F8233043B1002315
:109480002518401C80B2AB720228F3D3217070BD46
:109490000123F5E76068084940888A88C01C1044A9
:1094A0008880022004E000F009F8062000E0072090
:1094B000207070BD242F0020482400200A4909484C
:1094C0004988026801EB81030749283901EB8301D0
:1094D0004B6803604A6082880A81022282800020F1
:1094E0000874704748240020242F00202DE9F04301
:1094F000064680883288DFF85C8185B00746502AAE
:1095000037D010DC5449554B06F10A05A1EB030195
:109510004FEAD1014FF0020303EB0144352A3AD060
:10952000362A07D168E0522A02D0542AF9D102E043
:1095300000F012FF82E0142249496846FCF796FFCA
:10954000ADF80270384600F09DFCADF8040000F064
:10955000C9F90022444698F804103846FEF7C0F9CD
:109560000022E1783846FEF7BBF96846FFF70AFCAF
:1095700064E0307B012861D1B07A01285ED1308966
:10958000A0F52451023959D10121384600F038FFA5
:1095900006F06CFE52E098F80610FEF789F90028F4
:1095A0004CD0002298F806103846FEF799F9F28858
:1095B000B2F5857F17D012B120462AA10BE02A8888
:1095C000012A03D0204636A102F00AFB6A88012A4C
:1095D00004D0204641A102F003FB04E0A988002248
:1095E0003846A1DF08B1002125E0012298F80710D4
:1095F0003846FEF775F921E04FF0000998F807109A
:10960000FEF756F9D0B1002298F807103846FEF759
:1096100067F9F28812B1204612A104E0AA88012A53
:1096200004D020462DA102F0DBFA03E0A87900B1B6
:10963000012081464946384606F018FB002236498B
:1096400098F80200FEF7CEF805B0BDE8F04305F04B
:10965000B3BE0000D82200206C2403006C24030059
:10966000B0090300556E65787065637465642047C2
:1096700041545420737461747573207768696C6504
:109680002067657474696E67204341522063686186
:10969000722076616C75653A20307825780000007C
:1096A0004D756C7469706C652028256429204341D0
:1096B000522063686172616374657269737469636F
:1096C0007320666F756E642C207573696E672074E5
:1096D00068652066697273742E000000556E6578A7
:1096E00070656374656420434152206368617261F0
:1096F0006374657269737469632076616C75652043
:109700006C656E67746820282564292C2073746F3B
:10971000726520302E0000001D70020070B50446F6
:109720000078002814D1608800F016FE658828466D
:1097300000F0E8F928B107480122C1782846FEF771
:10974000CFF86088FEF720FEBDE8704006F08EBDC1
:1097500070BD0000D822002070B5204C0025257077
:10976000FEF79AF86070FEF797F8A070FEF794F88D
:10977000E070FEF791F82071FEF78EF86071FEF749
:109780008BF8A071FEF788F8E07162780121182A41
:1097900018D0A278182A15D0E278182A12D0227987
:1097A000182A0FD06279182A0CD0A279182A09D069
:1097B000182807D004F10C000560BFF35F8F2170FB
:1097C000002070BD0648074A801AC00801EB00401F
:1097D000054902F001FA032070BD0000D8220020E4
:1097E0006C2403006C240300940E03007CB5044633
:1097F0000078092837D1607A58BB207A1C4E4FF682
:10980000FF75012811D0072802D008282BD121E0AC
:10981000A08800F081FA0446A84224D0012100F07B
:10982000EFFD2046FEF7B0FD1DE0A0886A4601214D
:1098300003F008FD68B90198007850B1A08800F0E5
:109840006BFAA8420FD00122F178FEF749F805F033
:10985000B3FD08E0F068012805D1BFF35F8F04492C
:1098600000200C310860BDE87C4006F0FFBC000021
:10987000D822002010B50B48FFF715F8094A083A1E
:10988000D2E90434C018D2E9063244F10001C31A07
:1098900071EB020204D24FF08072801841F1000196
:1098A00010BD0000F823002010B5C0B2FEF754FD33
:1098B0000446007802F0F4FE01466078012801D0E9
:1098C000012000E0002090EA010F08D00449D1E90E
:1098D0000401084303D1BDE8104006F0A5BA10BD4D
:1098E000B82300201CB5054AD2E90212CDE90012C6
:1098F0000022694603F06CFE1CBD0000C80903008D
:1099000003484FF6FF7181800121017000207047EC
:10991000E82200202DE9FC41804600F0B3FA002443
:1099200003250127A0F57F412646FF3908D06A4666
:10993000082103F087FC18B90198841D8688056802
:1099400032462B4621464046B1DF042804D0082881
:1099500004D00B2808D002E0112000E00020002FE6
:1099600000D10B20BDE8FC810027A80701D5012507
:10997000E6E7344303D0002426460325E0E7064803
:1099800006494246401AC008012101EB0040044943
:1099900002F026F9E5E70000742403006C240300BC
:1099A0005C1103002DE9FF47824600F06BFAA0F539
:1099B0007F418146FF3916D03B493C4A0127891A2D
:1099C000C90807EB014600BF3A467F1C4FF000086C
:1099D000BFB202AB0821484603F07EFC040007D06A
:1099E000072C5ED05EE043F2020004B0BDE8F087D1
:1099F000039D03232A1DA91D50462B60B2DF0400DE
:109A000004D00C2C37D0052C38D038E06A46082119
:109A1000484603F017FC58B1052814D002F016FD93
:109A200002463046534622A102F0E1F80320DCE76B
:109A30000198AA888088824205D10199A81D891DB4
:109A4000FCF73FFD30B14A460821104603F0BCFC4C
:109A5000044627E00821484603F0ACFC48B102F078
:109A6000F5FC034630464A461F4902F0C0F803247D
:109A700018E00B2416E04FF0010800E00024082154
:109A8000484603F097FC40B102F0E0FC0346304644
:109A90004A46154902F0ABF80324B8F1000F93D100
:109AA00000E00C242046A0E7742403006C2403008B
:109AB0007064625F706565725F646174615F707429
:109AC000725F67657428292072657475726E6564AB
:109AD00020257320666F7220636F6E6E5F68616E03
:109AE000646C653A20256400DC100300044880881B
:109AF000A0F57F41FF3901D005F068BC7047000038
:109B0000E82200200EB502A9019100F0BBF96A46D7
:109B1000012103F097FB08B100200EBD01980078E9
:109B20000EBD00002DE9F04107464FF6FF761048C4
:109B3000B3DF78B102F08AFC02460E480E49401AA3
:109B4000C008012101EB00400C4902F049F8032054
:109B5000BDE8F081064C43F20305A41E324661883D
:109B60003846AFDFA842F3D16088401C6080F5E73B
:109B7000EA220020742403006C24030090100300E8
:109B8000428800EB82020C328A4201D902207047DF
:109B90008188A1F57F42FF3A06D0018821B1806813
:109BA000401C01D00020704701207047884204D239
:109BB0000068401C01D001207047002070473EB56E
:109BC000027802230C46B3EB520F17D1B0F8011004
:109BD000ADF80010C1788DF802108188ADF804103E
:109BE00080798DF8060002AA01A92046FCF7EEFF55
:109BF000032202A96846FCF764FC08B100203EBDC0
:109C000001203EBD70B50D460446142810D2FDF764
:109C100083FE68B1084904EB840001EB4000D0F8F2
:109C200002102960C188A980007AA871002070BD47
:109C300043F2020070BD00001C2A002070B50188AC
:109C400090B0102961D1011D2C226846FCF70EFC52
:109C50009DF804004FF6FF7603213446B1EB500F18
:109C60002BD003F073FC9DF804006D4640080ED025
:109C700001280CD0022820D118E00D99281D11319F
:109C8000FCF734FF18B100BFBDF82C4015E00CAA5A
:109C90000BA9072003F02EFC0028EED10DE00D9952
:109CA000281D491CFFF78BFF0028EDD10CAA0BA93A
:109CB000072003F01FFC0028F1D1BDF80000B442DA
:109CC00000EB8001124820F8114000EB410001999F
:109CD000C0F80210BDF80810C1809DF80A1001728A
:109CE00013D0BDF80000ADF82E000020ADF83040D4
:109CF000084E8DF82C000BAD044600BF56F824101A
:109D000028468847641C022CF8D310B070BD0000B0
:109D10001C2A0020DC0903002DE9F0414FF6FF76F4
:109D20000546B04213D00B4F002400BF04EB840063
:109D300037F81000A84206D12046FDF7EDFD10B11E
:109D40002046BDE8F081641CA4B2142CEED330464A
:109D5000F7E700001C2A00203EB50C46054603F03C
:109D6000F5FB0BE0BDF80000A04207D028460299A1
:109D700000F00EF810B1BDF800003EBD01AA694622
:109D8000072003F0B7FB0028ECD14FF6FF703EBD73
:109D90002DE9F0410C46054600F1110701F11106CD
:109DA0001022491C401CFCF78CFB48B9681C00F0D1
:109DB000FBF928B1601C00F0F7F908B1012400E0BC
:109DC000002431463846FCF791FE3B780222B2EB84
:109DD000530F0CD00321B1EB530F08D03378B2EB03
:109DE000530F04D0B1EB530F01D0012100E000214B
:109DF000084201D18C4302D00120BDE8F08100204F
:109E0000FBE7018811B9421892780AB10120704726
:109E1000491C0829F7D30020704710B50C460346AB
:109E2000FFF7EFFF00280AD018882188884205D163
:109E30000822A11C981CFCF744FB08B1002010BDAF
:109E4000012010BD142804D2024A00EB800022F841
:109E5000101070471C2A002070B50546FFF75CFF04
:109E60000446284603F0F2F9002808D1142C06D243
:109E7000034B04EB84024FF6FF7123F8121070BD00
:109E80001C2A002010B50446142808D2FDF744FD12
:109E900028B1044904EB840031F8100010BD4FF6DE
:109EA000FF7010BD1C2A00203EB5044603F04EFB97
:109EB0000EE0019920464631FFF7AFFF28B901991E
:109EC00020462A31FFF7A9FF10B1BDF808003EBDBA
:109ED0006A4602A9072003F00DFB0028E9D14FF6DE
:109EE000FF703EBD10B50A4941600A4800F025FEEA
:109EF00058B902F00BFA07491C238C220874044855
:109F00008C39001F006800F07EFD002010BD0000AD
:109F1000A40B0300D02F00202DE9F0412C4D00248C
:109F200020B16C604FF40640BDE8F0810879012251
:109F300050B1284B01280BD0254A022608320228AE
:109F400021D0032829D12CE00A7102F0D3FF22E0AE
:109F50005FF0000000EB800113F82110022908D007
:109F6000401C80B20228F5D32A706C6041F61D5067
:109F7000DAE700EB800003F8204003EB8000406844
:109F800002F0AAFF07E00C719680116800230122FD
:109F9000114801F011F90028C6D06C6048F20D603C
:109FA000C2E70C480C7128304188106801EB81072A
:109FB00003EB8701D1F804C0C2F800C04860B2F8D2
:109FC00004C0A1F808C0968003F82740D8E7000035
:109FD00040240020FC2E0020DC2400200146034801
:109FE00002888A4200D000207047000070290020BB
:109FF0002DE9FC5F0E008346DDE90C47C6F1000049
:10A0000098469246814600D40846012503E000BFE9
:10A0100090FBFAF06D1C5045FADAA84500D9454688
:10A0200024B1002E01DB780700D5641EB80702D5E5
:10A03000B8F1000F0AD0F80708D13CB1A54205D20B
:10A0400020215846641EFEF763F9F6E7002E02DA77
:10A050004E462D2102E0780703D52B215846FEF706
:10A0600057F907F0030002280BD1B8F1000F08D10F
:10A070003CB1A54205D230215846641EFEF748F98E
:10A08000F6E7CDE90047434652463146584606F0CA
:10A0900093F8BDE8FC9F000070B50D4604460068CB
:10A0A0004FF4887102F0F2F94FF49071206802F0D9
:10A0B000EDF94FF49271206802F0E8F94FF4A271C3
:10A0C000206802F0E3F94FF4AC71206802F0DEF989
:10A0D00020681249C0F804132068690740F307306C
:10A0E000090E002804DB00F1E02080F8001405E0F0
:10A0F00000F00F0000F1E02080F8141D206840F30C
:10A100000730002809DB00F01F02012191404009BF
:10A11000800000F1E020C0F8001170BD1003420083
:10A12000024600201268530713D502F003000128ED
:10A1300002D002280CD105E0C2F383100B68801C0A
:10A14000184404E00223086803EB925210440860AC
:10A15000012070470248007A002800D00120704793
:10A16000D02F0020F0B58488A518944200D822464C
:10A17000A41AC288D6189A4200D81346D21A4B881D
:10A180000788BB420CD34088834209D88888A04204
:10A1900006D3A84204D8C888904201D3B04201D95E
:10A1A0000020F0BD0120F0BD0021425C0AB1012079
:10A1B0007047491C1029F8D300207047800701D050
:10A1C00000207047012070470A4810B5807860B1C0
:10A1D000002401E0022C06D02046FDF70BFE641C93
:10A1E000042CF7D310BD0324F6E7BDE81040FDF7BB
:10A1F00021BE00005822002003480179C90702D07F
:10A200000078FDF753BF70475822002017210180C6
:10A2100041800021017141711B218171C171704721
:10A220002DE9FE4F2E4F984692460D00814601D0F3
:10A2300000260DE0684600F0A3FB6A460021484670
:10A2400002F05CFF3878009E10B99DF8090098B1C3
:10A2500052463146484605F0BDFB04460146002201
:10A260004846FFF711F80D2C37D008DCA4B3082CB2
:10A2700033D00B2C09D130E00520BDE8FE8F112C26
:10A280001ED0A4F54050023827D0204602F0DEF858
:10A290000246144814494B46401AC008012101EBFC
:10A2A0000040124901F0A3FC5FF00305B8F1000F74
:10A2B00004D0324621464846FEF794FC2846DCE7A7
:10A2C0002A46F9784846FDF70BFB5246B9784846CE
:10A2D000FDF706FB0025E9E7FFE72546E6E7000076
:10A2E00080230020B42403006C240300EC1B030033
:10A2F00070B50E460C49154604460978FDF7D8FAA4
:10A3000000280FD0204602F09FFE00282A46314642
:10A31000204603D0BDE8704002F09CBEBDE870400E
:10A32000FEF7C0BB70BD00007823002070B5094D5A
:10A330000646A978FDF7BCFA0446E9783046FDF7F1
:10A34000B7FA014622463046BDE870400123FFF7C8
:10A3500067BF000080230020F0B585B005460027C8
:10A3600014216846FCF79BF8A5F57F40ADF8025034
:10A37000FF3825D02846FFF7CDFA040022D01B482D
:10A380001B49401AC6080B2C22D0112C1ED0A4F554
:10A39000405002380ED0204602F058F80246012004
:10A3A00000EB06402B46134901F021FC21462846CC
:10A3B00004F0BAFF10483A4681782846FDF790FA33
:10A3C00005B0F0BD0F208DF800000BE00127F1E78C
:10A3D00010208DF80000022000EB06402A460749B5
:10A3E00001F0FEFB6846FEF7CDFCE3E76C240300BA
:10A3F0006C240300640F0300D8220020B80F030070
:10A400000A4602494978FDF76BBA0000D8220020BD
:10A410002DE9F041002786B080463E46FFF7C2FA9C
:10A4200004461F481F49401AC508112C23D003DCDD
:10A43000FCB10B2C06D114E0862C1ED0A4F54050A4
:10A4400002380ED0204602F001F80246012000EB4F
:10A450000540434614A101F0CAFB2146404604F0E2
:10A4600063FF39464046FFF7CBFF06B03046BDE8F4
:10A47000F0810126F5E70127F3E714221A4968461F
:10A48000FBF7F4FF0220ADF8028000EB05404246E6
:10A4900016A101F0A5FB6846FEF774FCE1E7000099
:10A4A0006C2403006C2403006773636D5F6C6F633F
:10A4B000616C5F64625F63616368655F757064614E
:10A4C000746528292072657475726E656420257321
:10A4D00020666F7220636F6E6E5F68616E646C657C
:10A4E0003A2025640000000088090300466C61736F
:10A4F000682066756C6C2E20436F756C64206E6FDF
:10A50000742073746F7265206461746120666F7269
:10A5100020636F6E6E5F68616E646C653A202564BF
:10A5200000000000704700002DE9FF41002624488C
:10A5300000F000FB2248001F074600F0FBFA214C08
:10A540002149A06800900D6800E000986946284005
:10A5500004EB80000C30FFF7E3FD0028F5D101AAE1
:10A56000009901EA050304EB8303491CDB6842F808
:10A570002030401C00910228F2D3019800F0030023
:10A5800001280BD0022810D10198032101EB905033
:10A590000099BDF80A6001EB900005E00198BDF854
:10A5A0000A60C0F3831008440090384600F0BFFAF8
:10A5B00008B10098A06004B03046BDE8F08100000A
:10A5C000A03500208831002080240020ACB04FF45A
:10A5D0008041002001F07EFB08B1FCF7BDFB01F0DB
:10A5E000D1F9FCF7DBFB08B1FCF7B6FB5F490320B0
:10A5F000FDF712FD08B1FCF7AFFB69460020FDF73F
:10A600003DFC08B1FCF7A8FB9DF8000002287CD0B7
:10A610005FF0000501F068FC08B1FCF79DFB01F05C
:10A6200029FE08B1FCF798FB00246946012000943C
:10A6300001F0B0FC08B1FCF78FFB684601F02AFD81
:10A6400008B1FCF789FB9DF8080049A120F00F0034
:10A65000401C20F0F00010308DF808000F2202A8F6
:10A660007CDF08B1FCF778FB00945020ADF80000C7
:10A67000A0200194ADF80200ADF804404FF4C8707A
:10A68000ADF8060068467ADF08B1FCF765FB0021EB
:10A690003B4800F0DBFA08B1FCF75EFBAC216846F2
:10A6A000FBF7FDFE02208DF8000001208DF802006E
:10A6B0000621ADF810008DF87C008DF803104FF4E2
:10A6C000967030492290059144F2506023902E48B4
:10A6D00029902B4869462030FCF759FE08B1FCF759
:10A6E0003BFB274801212030FCF74EFE2748009015
:10A6F00023486946143000F06EFB08B1FCF72CFBD0
:10A700001C216846FBF7CBFE00E02CE04FF4A030A4
:10A71000CDE900404FF4F02002901D48059003263B
:10A720001C488DF80C600690ADF80E408DF8104076
:10A730006846FDF713F808B1FCF70EFB03F09EF82E
:10A7400015481649401AC00806EB004014A101F054
:10A7500043FA2846FCF712FA01F022F90028FBD14F
:10A7600001F0D6FBF8E7012554E70000717F0200F5
:10A770004E6F726469635F54656D706C61746500DF
:10A78000F02400205222002069CC020055BF0200B4
:10A79000BDCC0200C7850200142503006C24030011
:10A7A00054656D706C617465206578616D706C6561
:10A7B00020737461727465642E00000070B51446D5
:10A7C00082880E4605462088111D0144921C99423C
:10A7D00001D8FE2A01D90C2070BD521C32542088A9
:10A7E000FF21401C80B2208031542088401C80B260
:10A7F00020808119288805F0CAFC2188084480B28D
:10A800002080AA8842B1A96841B13044FBF72EFEEE
:10A810002088A98808442080002070BD072070BDD2
:10A820002DE9F047C5881E1DB6FBF5F78946B6FB36
:10A83000F5F1044605FB176C407916686843DDF8AE
:10A8400020A0F718001F874200D9C61A166001E041
:10A850002468491E0029FBD1A5EB0C078846B742A6
:10A8600016D818E004EB0C00001D09EB0803BAF140
:10A87000000F3A4602D00146184600E01946FBF7A1
:10A88000F5FD2468F61B4FF0000CB844B54201D921
:10A89000374600E02F46002EE4D1BDE8F0870000E7
:10A8A00030B5024651B101F029FA0021074C08E009
:10A8B00034F821301568AB4202D11160002030BD60
:10A8C000491C8142F4D3052030BD00000000000087
:10A8D000BFF35F8F00F016B9F8B50F460178144644
:10A8E0000546012901D1687830B12088821C9A423E
:10A8F00032D8012902D006E00720F8BD697801446A
:10A90000891C994228D8181A801E86B2ADF80060BA
:10A910002188B81C084469467DDF0028EDD12978DC
:10A92000022904D06878BDF80020904205D3BDF814
:10A930000000B04201D809200AE00820012905D111
:10A940006978B14202D8ADF8001001E0ADF80060BE
:10A95000BDF80010FE2901D90C20F8BD2288491C41
:10A96000B9542188491C89B2218078542088401C20
:10A970002080BDF80010084420800020F8BD0000B1
:10A98000034A00219268C0E90021816070470000FD
:10A990008023002070B586B00D460646144614216B
:10A9A0006846FBF77CFD8DF80050ADF8024020466C
:10A9B000FFF768FAADF80400142269463046FBF749
:10A9C00055FD06B070BD70B54FF6FF750E46A84236
:10A9D00001D1002000E0401C84B208E0214630464E
:10A9E00000F090F808B1204670BD641CA4B2FF2CA2
:10A9F000F4D9284670BD10B5FBF757FC08B100200C
:10AA000010BD112010BD10B531B1B2FBF3F403FB42
:10AA100014241CB1092010BD0E2010BD01600021BE
:10AA2000416081608281C381084610BD70B50C46CB
:10AA30000546FBF7EFFB002802D021882868084470
:10AA400070BD10B50A8849888A4203D1FBF724FCFF
:10AA5000012010BD002010BD70B50C460546FBF767
:10AA6000FEFB002802D061882868084470BD10B53C
:10AA70000A8849888A4203D1FBF7E8FB012010BD10
:10AA8000002010BD01F01F0301229A40D243490962
:10AA900000EB8100114600F059B80A4601F01F038F
:10AAA0000121994010B552090C4600EB820000F0DC
:10AAB0005DF8204000D0012010BD2DE9F041804616
:10AAC0000D460024481E012101EB501716E058F8EE
:10AAD0002400C04390FAA0F0B0FA80F020280CD2F5
:10AAE00000EB4416AE4208D231464046FFF7D5FF90
:10AAF0000028ECD13046BDE8F081641CA742E6D8BE
:10AB00002846F8E74A0950F8220001F01F02012107
:10AB10009140084000D00120704701F01F0301223E
:10AB20009A40490900EB8100114600F029B8002144
:10AB300000F017B8012100F023B8012100F016B889
:10AB400008B56A46FBF7FDFB009808BD08B56A46E4
:10AB5000FBF7DDFB009808BD08B56A46FBF7F1FB83
:10AB600008BD08B56A46FBF7D2FB08BD08B56A46C2
:10AB7000FBF7C0FB08BD08B56A46FBF7AFFB08BD95
:10AB800008B56A46FBF7B6FB009808BD08B56A46EB
:10AB9000FBF7E4FB009808BD38B5044600258DF8A6
:10ABA00000506846FCF774F92168626808689042B2
:10ABB0000ED9401E08600178238AE26801FB032554
:10ABC000227A2168101AC0B20A79824200D2087132
:10ABD0009DF80000FCF780F9284638BD38B50546D9
:10ABE00000208DF800000C466846FCF751F9E86833
:10ABF000298A201AB0FBF1F12A681068431C1360FF
:10AC000001709DF80000FCF767F938BD10B530B150
:10AC1000017A42680368891AC9B21A6006E00E20F8
:10AC200010BD03681A68541C1C601170491EC9B21B
:10AC3000F7D2006800210171084610BDC20800F07B
:10AC400007030120895C98400840704710B560B147
:10AC50000161172120F8021B20F8021B1B2100F8BC
:10AC6000021BFFF7D3FA002010BD0E2010BD00001C
:10AC7000F0B5858893B00C46002D39D101880026A7
:10AC80003F4F24293BD006DC102909D011290CD0D4
:10AC9000232958D14FE03A290BD0552953D129E027
:10ACA0000146204602F018F84DE0A01DFFF7AEFA6D
:10ACB00049E02246408934F8061F814200D8084600
:10ACC0006080172800D217206080106970B1607909
:10ACD00060B1D7E90001CDE90301ADF80E506088FD
:10ACE000ADF81000136903A91046984766712671E4
:10ACF00013B0F0BD0146204602F042F823E0011DEA
:10AD00002C2206A8FBF7B2FBBDF81800BDF81C20EA
:10AD100004EBC0014A732269AAB1D7E90423CDE943
:10AD20000423ADF81200487B8DF8140022692046F8
:10AD300004A9904707E0017A207B884200D20146AF
:10AD40002846FDF78BFCA07A0028D1D0E188284660
:10AD5000A5DF012580B11128CAD001F077FB02469A
:10AD60000848094913B0401AC00805EB0040BDE887
:10AD7000F04006A100F034BFA672E572B8E700000B
:10AD8000E4090300842403006C24030073645F62FD
:10AD90006C655F67617474635F65786368616E6733
:10ADA000655F6D74755F72657175657374282920B0
:10ADB00072657475726E65642025732E0000000044
:10ADC00020B10278DE2A03D0082070470E20704799
:10ADD00041800020704760B159B10278DE2A0AD064
:10ADE00009684160DE2101704FF6FF71418000204B
:10ADF00070470E207047082070477FB50546002930
:10AE00004DD0002D4BD008780C46DE2847D1A888BD
:10AE10006188884202D1204605F086FA28880128F8
:10AE200025D002283BD011283AD0512837D135F807
:10AE3000040F6188884232D1A978A81C02292ED13A
:10AE4000017A042903D0062901D0052927D1002140
:10AE5000009102228DF8002001914FF4C0720291FE
:10AE60000391ADF80420007A05280FD010E0297A6C
:10AE70002046012913D1A988428891420FD101218E
:10AE8000017204B0BDE8704005F04EBAADF8041090
:10AE900028886946B0DF002801D0616888477FBDF7
:10AEA000A88861888842FAD14FF6FF7060807FBD24
:10AEB00000F180400068002800D00120704708B5EC
:10AEC00000F18040002101600068009008BD000092
:10AED00070B50D4C0125207808B185260EE00020C4
:10AEE000A06060602061E060084801F0F3FA064667
:10AEF00001F00CFA08B901F0D7FA257001F0CCFA8C
:10AF000000B1A570304670BD002D0020CD84020038
:10AF100038B500258DF800506846FBF7B9FF084C9E
:10AF2000E068401EE060E06828B901F0B5FA10B9A9
:10AF300001F0E0FAA5709DF80000FBF7CDFF38BDE9
:10AF4000002D0020F0B505460478154889B0164656
:10AF500040F82420124A0869121DA2F1080742F89D
:10AF60002400487F385520226846FBF77FFA049476
:10AF70002878385C48B10EB10A4A00E000226946E0
:10AF8000281D01F047FD09B0F0BD0EB1064A00E0F2
:10AF90000022694605F10C0001F006FCF3E7000011
:10AFA0009C2300204D00030095FE02000FB408B55D
:10AFB0000399002904D004AA00926A4600F00FF811
:10AFC00001B05DF814FB10B582680446002A05D074
:10AFD000D4E90403216898470020A06010BD2DE942
:10AFE000FC4791460C00804676D014F8011B39B11D
:10AFF00025290ED04046FDF78BF920780028F4D1A2
:10B0000098F80C00002867D04046BDE8FC47FFF7E1
:10B01000DABF0020012221782B291BD02D2902D054
:10B02000302908D102E040F0010001E040F00200C8
:10B03000641C002AEFD100252A290ED02178A1F125
:10B0400030020A2A11D205EB850201EB4205641C8D
:10B05000303DF1E740F00400EAE7D9F800100B1D9D
:10B06000C9F800300968641C0D44217800232E299A
:10B070000BD114F8011FA1F130020A2A05D203EB0B
:10B08000830201EB4203303BF3E76C290DD06829C2
:10B090000BD0692921D00BDC252918D0582931D0B3
:10B0A00063290ED0642915D117E014F8011FECE7CD
:10B0B000702969D0732932D075291BD0782909D11C
:10B0C00020E0D9F80000011DC9F8001001784046C1
:10B0D000FDF71EF9641C90E76CE0D9F800100A1D1A
:10B0E000C9F800200968CDE900500A224046FEF761
:10B0F0007FFFEFE7D9F800100A1DC9F800200968A2
:10B100000A2206E0D9F800100A1DC9F800200968D3
:10B110001022CDE90050404605F04EF8DAE7D9F8A4
:10B12000001000270A1DC9F800200E68C00705D1CD
:10B1300012E04046761C7F1CFDF7EAF831780029C2
:10B14000F7D104E0202140466D1EFDF7E1F8BD4235
:10B15000C0D9002DF6D1BDE74EB13046FBF7AAF9B4
:10B16000074604E0202140466D1EFDF7D1F8BD42A0
:10B1700006D9002DF6D103E04046761CFDF7C8F84D
:10B1800031780029F8D1A5E7D9F80000011DC9F8E8
:10B190000010056830214046FDF7BAF87821404696
:10B1A000FDF7B6F808200021CDE900010346102282
:10B1B0002946B0E7BDE8FC872DE9F843884605003D
:10B1C0002C482D499946A0EB01004FEAD0004FF0E2
:10B1D0000101164601EB004424D0286800282CD039
:10B1E000002E34D0696840464FF010070A68511E9F
:10B1F00011EA080F11D1014672432846FBF78FFC74
:10B2000000282ED028684B463246046901B04146DA
:10B210002846A446BDE8F04360472046174B18A2D5
:10B22000009722E00E2000902046144B1EA220A181
:10B2300000F0E5FC0E20BDE8F883082000902046D1
:10B240000E4B26A21AA100F0DAFC0820F3E7092031
:10B2500000902046094B24A215A100F0D0FC092043
:10B26000E9E7064B214A2046009711A100F0C7FCF0
:10B270001020E0E7FC2403006C2403008B0B030088
:10B28000616464725F69735F706167655F616C6957
:10B29000676E656428705F66732C20706167655FF8
:10B2A0006164647229000000705F66730000000032
:10B2B000257320636865636B206661696C65642033
:10B2C000696E202573282920776974682076616C5F
:10B2D000756520307825782E00000000705F667359
:10B2E0002D3E705F617069006C656E00B01C0300DC
:10B2F00038B503001148124D4FF00E04A0EB0500C5
:10B300004FEAD0004FF0010505EB004009D061B1D4
:10B3100019600C6801B0A446BDE8304011461846DB
:10B320006047084B08A2009402E0064B08A2009474
:10B3300009A100F064FC0E2038BD0000FC240300CD
:10B340006C240300400B0300705F66730000000074
:10B35000705F617069000000257320636865636B2E
:10B36000206661696C656420696E20257328292038
:10B37000776974682076616C756520307825782E41
:10B3800000000000044801214174007A08B1002047
:10B390007047012070470000D02F0020012801D005
:10B3A000032808D10449002201284A7400D0002053
:10B3B000087403F0B5BA7047D02F002070B502466C
:10B3C000022801D0032A45D1234C207A002841D0FD
:10B3D000012833D0022831D120480023022A0068F6
:10B3E00002D0032A2AD11BE0E360017911B10129BF
:10B3F00024D10DE0D0E90565711B4FF48056B142B0
:10B4000000D33146294481614569A9420ED015E037
:10B410000169491C0161426991420FD1237213E015
:10B42000E168491CE160082908D9E3602372022A17
:10B430000AD00D21FDF7ACFB03F016FA607C28B1B1
:10B44000BDE8704000F068BF0021F3E7BDE8704040
:10B4500003F066BA70BD0000D02F002050240020F9
:10B460002DE9F84F90468A463A493B4A0500A1EB40
:10B4700002014FEAD1014FF00102DDF828901E468B
:10B480004FF00E0002EB01441AD0B8F1000F1CD0AF
:10B490002868002822D00920002E29D06968496830
:10B4A000B6FBF1F201FB1261002926D000902B4B74
:10B4B00020462BA235A100F0A2FB0920BDE8F88FA1
:10B4C00000902046254B3CA203E00090234B2046F1
:10B4D0003BA22EA100F093FB0E20EFE70820009086
:10B4E00020461E4B38A229A100F089FB0820E5E781
:10B4F00000902046194B37A2DCE75046FBF709FBCA
:10B50000102798B14046FBF704FBA0B132465146E4
:10B510002846FBF704FB98B1CDF800902868334625
:10B520004246C46851462846A047C7E720460B4B11
:10B5300029A2009708E02046084B2DA2009703E0BF
:10B54000064B204633A2009710A100F058FB1020B4
:10B55000B4E70000FC2403006C240300780B030014
:10B5600021286C656E202520705F66732D3E705F0C
:10B57000666C6173685F696E666F2D3E70726F678F
:10B5800072616D5F756E6974290000002573206318
:10B590006865636B206661696C656420696E20254F
:10B5A00073282920776974682076616C756520306E
:10B5B0007825782E00000000705F667300000000A0
:10B5C000705F737263000000705F66732D3E705F82
:10B5D000617069006C656E00616464725F69735FBD
:10B5E000616C69676E656433322864657374290021
:10B5F000616464725F69735F616C69676E6564330F
:10B6000032282875696E7433325F7429705F7372E3
:10B6100063290000616464725F69735F77697468AD
:10B62000696E5F626F756E647328705F66732C203D
:10B63000646573742C206C656E29000070B541EA56
:10B640004201DDE904564FF0A04441EA830141EA9A
:10B65000052104EB800041EA0641C0F8001770BDE7
:10B6600070B541EA4201DDE904564FF0A04441EAD9
:10B67000830141EA052104EB800041EA0641C0F85C
:10B68000001770BD70B541EA4201DDE904564FF084
:10B69000A04441EA830141EA052104EB800041EA2C
:10B6A0000641C0F8001770BD70B541EA4201DDE9FE
:10B6B00004564FF0A04441EA830141EA052104EB1E
:10B6C000800041EA0641C0F8001770BD1CB500219A
:10B6D00000910B4601220191FFF7D4FF1CBD1CB560
:10B6E000002100910B4601220191FFF7DDFF1CBDF7
:10B6F0001CB500220B46009211460192FFF7C2FFD3
:10B700001CBD1CB500220B46009211460192FFF7AA
:10B71000CBFF1CBD1CB5002100910B4601220191FD
:10B720001146FFF7AFFF1CBD1CB5002100910B4671
:10B73000012201911146FFF7B7FF1CBD4FF0A04257
:10B7400002EB8000D0F8002722F44032C0F8002736
:10B75000D0F8002742EA0141C0F800177047000006
:10B7600038B5094B44181B6800936B4608E000BFCE
:10B7700053F82010D1F8205520C2C1F82055401CA4
:10B780008442F5D838BD0000E40A030042094FF0B6
:10B79000000100D1491E00F01F00012282400A4230
:10B7A00001D0012070470020704701224FF0A043D4
:10B7B000824011B1C3F808257047C3F80C257047C3
:10B7C000034908B50844002101600068009008BDE5
:10B7D0000060004002494058012800D00020704716
:10B7E0000060004030B5154A01460020D2F81044F0
:10B7F00023460AE0DB681D79854205D1401C0A28F2
:10B80000F6DB4FF0FF3030BD1B68002BF2D1431C3C
:10B81000F9D0CB681871D2F8103443B1DB68CC682A
:10B820001B682360D2F81024D268116030BDC2F8C2
:10B830001014C96800220A6030BD00008831002061
:10B84000F0B595B01C4615460F4608461A9E00F006
:10B8500025FB182109A8FAF722FE0E96CDE9095416
:10B860000023082203A9384600F02DFB0598069016
:10B87000BDF81000ADF81C00BDF81200ADF81E00B8
:10B8800000208DF821000398082600F0030001280D
:10B8900002D0022818D032E003983346850AC0F35C
:10B8A000C2008DF8200003980FA9C0F38314A200F2
:10B8B000384600F008FB09A8009006AB22460FA905
:10B8C000284600F047FA1AE00398840DC0F3C2003E
:10B8D0008DF82000082C01D2254600E008253346CB
:10B8E0002A460FA9384600F0EEFA2E44641B09AB35
:10B8F00006AA29460FA800F095F9002CEAD138468F
:10B9000000F0D2FA15B0F0BD7047012004F0E0BAA3
:10B91000084810B50178084A515C19B1001D01F0C2
:10B9200013F902E00C3001F00DF8BDE810400020E2
:10B9300004F0CEBA642400209823002008B5034AFE
:10B9400000924023024AFFF77BFF08BD79F3020013
:10B95000F02F00200A4A012902EBC00007D002297B
:10B9600007D0032907D0042907D000207047022000
:10B970007047042070470079704740797047000095
:10B980006C24030010B5FFF7C0FF04210348FFF744
:10B9900029FF02490120C968487110BD5C240300D9
:10B9A0002DE9F04F8DB0FCF7CBFC18B100200DB0A5
:10B9B000BDE8F08F7E4C4FF0000BC4F818B4BFF315
:10B9C0004F8F7C49A06802900D68D846284004EB50
:10B9D00080000BE0D4F8180470B9616802988142C5
:10B9E00001D8A160E2E7284004EB80000C3002A9F6
:10B9F000FEF796FB0028EDD1002005AA029901EA86
:10BA0000050304EB8303491CDB6842F82030401C2B
:10BA100002910228F2D3059800F00300022802D018
:10BA200001284DD0AAE005985022810D8946B2EB3D
:10BA3000905F00D850210E4666F39F500590083164
:10BA40005D4800F0E2F9070078D000F027FA43469D
:10BA5000082205A9384600F03EFA029908F1080AC2
:10BA60002940681A8000001D864222D9504D0C35AD
:10BA700030B1C2B204EB8101301A90460C3104E0BF
:10BA80002946F2B2002590462846C6B253463846AB
:10BA900000F021FA0AEB080325B132462946384660
:10BAA00000F019FA029909F1030001EB90000290ED
:10BAB0003BE004EB81015346324638460C31EFE758
:10BAC0000598C0F38310062800D30620059960F37B
:10BAD0008911C1F38310801C05918100364800F064
